{
  "abi": [
    {
      "inputs": [
        {
          "internalType": "uint256[2]",
          "name": "_pA",
          "type": "uint256[2]"
        },
        {
          "internalType": "uint256[2][2]",
          "name": "_pB",
          "type": "uint256[2][2]"
        },
        {
          "internalType": "uint256[2]",
          "name": "_pC",
          "type": "uint256[2]"
        },
        {
          "internalType": "uint256[1]",
          "name": "_pubSignals",
          "type": "uint256[1]"
        }
      ],
      "name": "verifyProof",
      "outputs": [
        {
          "internalType": "bool",
          "name": "",
          "type": "bool"
        }
      ],
      "stateMutability": "view",
      "type": "function"
    }
  ],
  "devdoc": {
    "kind": "dev",
    "methods": {},
    "version": 1
  },
  "evm": {
    "assembly": "    /* \"Verifier.sol\":831:7068  contract Groth16Verifier {... */\n  mstore(0x40, 0x80)\n  callvalue\n  dup1\n  iszero\n  tag_1\n  jumpi\n  0x00\n  dup1\n  revert\ntag_1:\n  pop\n  dataSize(sub_0)\n  dup1\n  dataOffset(sub_0)\n  0x00\n  codecopy\n  0x00\n  return\nstop\n\nsub_0: assembly {\n        /* \"Verifier.sol\":831:7068  contract Groth16Verifier {... */\n      mstore(0x40, 0x80)\n      callvalue\n      dup1\n      iszero\n      tag_1\n      jumpi\n      0x00\n      dup1\n      revert\n    tag_1:\n      pop\n      jumpi(tag_2, lt(calldatasize, 0x04))\n      shr(0xe0, calldataload(0x00))\n      dup1\n      0x43753b4d\n      eq\n      tag_3\n      jumpi\n    tag_2:\n      0x00\n      dup1\n      revert\n        /* \"Verifier.sol\":3256:7065  function verifyProof(uint[2] calldata _pA, uint[2][2] calldata _pB, uint[2] calldata _pC, uint[1] calldata _pubSignals) public view returns (bool) {... */\n    tag_3:\n      tag_4\n      tag_5\n      calldatasize\n      0x04\n      tag_6\n      jump\t// in\n    tag_5:\n      tag_7\n      jump\t// in\n    tag_4:\n      mload(0x40)\n        /* \"#utility.yul\":1038:1052   */\n      swap1\n      iszero\n        /* \"#utility.yul\":1031:1053   */\n      iszero\n        /* \"#utility.yul\":1013:1054   */\n      dup2\n      mstore\n        /* \"#utility.yul\":1001:1003   */\n      0x20\n        /* \"#utility.yul\":986:1004   */\n      add\n        /* \"Verifier.sol\":3256:7065  function verifyProof(uint[2] calldata _pA, uint[2][2] calldata _pB, uint[2] calldata _pC, uint[1] calldata _pubSignals) public view returns (bool) {... */\n      mload(0x40)\n      dup1\n      swap2\n      sub\n      swap1\n      return\n    tag_7:\n        /* \"Verifier.sol\":3397:3401  bool */\n      0x00\n        /* \"Verifier.sol\":3436:3599  function checkField(v) {... */\n      jump(tag_14)\n    tag_11:\n        /* \"Verifier.sol\":3493:3494  r */\n      0x30644e72e131a029b85045b68181585d2833e84879b9709143e1f593f0000001\n        /* \"Verifier.sol\":3490:3491  v */\n      dup2\n        /* \"Verifier.sol\":3487:3495  lt(v, r) */\n      lt\n        /* \"Verifier.sol\":3477:3585  if iszero(lt(v, r)) {... */\n      tag_16\n      jumpi\n        /* \"Verifier.sol\":3529:3530  0 */\n      0x00\n        /* \"Verifier.sol\":3526:3527  0 */\n      dup1\n        /* \"Verifier.sol\":3519:3531  mstore(0, 0) */\n      mstore\n        /* \"Verifier.sol\":3562:3566  0x20 */\n      0x20\n        /* \"Verifier.sol\":3559:3560  0 */\n      0x00\n        /* \"Verifier.sol\":3552:3567  return(0, 0x20) */\n      return\n        /* \"Verifier.sol\":3477:3585  if iszero(lt(v, r)) {... */\n    tag_16:\n        /* \"Verifier.sol\":3436:3599  function checkField(v) {... */\n      pop\n      jump\t// out\n        /* \"Verifier.sol\":3703:4441  function g1_mulAccC(pR, x, y, s) {... */\n    tag_12:\n        /* \"Verifier.sol\":3754:3765  let success */\n      0x00\n        /* \"Verifier.sol\":3799:3803  0x40 */\n      0x40\n        /* \"Verifier.sol\":3793:3804  mload(0x40) */\n      mload\n        /* \"Verifier.sol\":3833:3834  x */\n      dup4\n        /* \"Verifier.sol\":3828:3831  mIn */\n      dup2\n        /* \"Verifier.sol\":3821:3835  mstore(mIn, x) */\n      mstore\n        /* \"Verifier.sol\":3873:3874  y */\n      dup5\n        /* \"Verifier.sol\":3868:3870  32 */\n      0x20\n        /* \"Verifier.sol\":3863:3866  mIn */\n      dup3\n        /* \"Verifier.sol\":3859:3871  add(mIn, 32) */\n      add\n        /* \"Verifier.sol\":3852:3875  mstore(add(mIn, 32), y) */\n      mstore\n        /* \"Verifier.sol\":3913:3914  s */\n      dup6\n        /* \"Verifier.sol\":3908:3910  64 */\n      0x40\n        /* \"Verifier.sol\":3903:3906  mIn */\n      dup3\n        /* \"Verifier.sol\":3899:3911  add(mIn, 64) */\n      add\n        /* \"Verifier.sol\":3892:3915  mstore(add(mIn, 64), s) */\n      mstore\n        /* \"Verifier.sol\":3990:3992  64 */\n      0x40\n        /* \"Verifier.sol\":3985:3988  mIn */\n      dup2\n        /* \"Verifier.sol\":3981:3983  96 */\n      0x60\n        /* \"Verifier.sol\":3976:3979  mIn */\n      dup4\n        /* \"Verifier.sol\":3973:3974  7 */\n      0x07\n        /* \"Verifier.sol\":3966:3970  2000 */\n      0x07d0\n        /* \"Verifier.sol\":3959:3964  gas() */\n      gas\n        /* \"Verifier.sol\":3955:3971  sub(gas(), 2000) */\n      sub\n        /* \"Verifier.sol\":3944:3993  staticcall(sub(gas(), 2000), 7, mIn, 96, mIn, 64) */\n      staticcall\n        /* \"Verifier.sol\":3933:3993  success := staticcall(sub(gas(), 2000), 7, mIn, 96, mIn, 64) */\n      swap2\n      pop\n        /* \"Verifier.sol\":4021:4028  success */\n      dup2\n        /* \"Verifier.sol\":4011:4118  if iszero(success) {... */\n      tag_18\n      jumpi\n        /* \"Verifier.sol\":4062:4063  0 */\n      0x00\n        /* \"Verifier.sol\":4059:4060  0 */\n      dup1\n        /* \"Verifier.sol\":4052:4064  mstore(0, 0) */\n      mstore\n        /* \"Verifier.sol\":4095:4099  0x20 */\n      0x20\n        /* \"Verifier.sol\":4092:4093  0 */\n      0x00\n        /* \"Verifier.sol\":4085:4100  return(0, 0x20) */\n      return\n        /* \"Verifier.sol\":4011:4118  if iszero(success) {... */\n    tag_18:\n        /* \"Verifier.sol\":4163:4165  pR */\n      dup3\n        /* \"Verifier.sol\":4157:4166  mload(pR) */\n      mload\n        /* \"Verifier.sol\":4152:4154  64 */\n      0x40\n        /* \"Verifier.sol\":4147:4150  mIn */\n      dup3\n        /* \"Verifier.sol\":4143:4155  add(mIn, 64) */\n      add\n        /* \"Verifier.sol\":4136:4167  mstore(add(mIn, 64), mload(pR)) */\n      mstore\n        /* \"Verifier.sol\":4219:4221  32 */\n      0x20\n        /* \"Verifier.sol\":4215:4217  pR */\n      dup4\n        /* \"Verifier.sol\":4211:4222  add(pR, 32) */\n      add\n        /* \"Verifier.sol\":4205:4223  mload(add(pR, 32)) */\n      mload\n        /* \"Verifier.sol\":4200:4202  96 */\n      0x60\n        /* \"Verifier.sol\":4195:4198  mIn */\n      dup3\n        /* \"Verifier.sol\":4191:4203  add(mIn, 96) */\n      add\n        /* \"Verifier.sol\":4184:4224  mstore(add(mIn, 96), mload(add(pR, 32))) */\n      mstore\n        /* \"Verifier.sol\":4299:4301  64 */\n      0x40\n        /* \"Verifier.sol\":4295:4297  pR */\n      dup4\n        /* \"Verifier.sol\":4290:4293  128 */\n      0x80\n        /* \"Verifier.sol\":4285:4288  mIn */\n      dup4\n        /* \"Verifier.sol\":4282:4283  6 */\n      0x06\n        /* \"Verifier.sol\":4275:4279  2000 */\n      0x07d0\n        /* \"Verifier.sol\":4268:4273  gas() */\n      gas\n        /* \"Verifier.sol\":4264:4280  sub(gas(), 2000) */\n      sub\n        /* \"Verifier.sol\":4253:4302  staticcall(sub(gas(), 2000), 6, mIn, 128, pR, 64) */\n      staticcall\n        /* \"Verifier.sol\":4242:4302  success := staticcall(sub(gas(), 2000), 6, mIn, 128, pR, 64) */\n      swap2\n      pop\n      pop\n        /* \"Verifier.sol\":4330:4337  success */\n      dup1\n        /* \"Verifier.sol\":4320:4427  if iszero(success) {... */\n      tag_19\n      jumpi\n        /* \"Verifier.sol\":4371:4372  0 */\n      0x00\n        /* \"Verifier.sol\":4368:4369  0 */\n      dup1\n        /* \"Verifier.sol\":4361:4373  mstore(0, 0) */\n      mstore\n        /* \"Verifier.sol\":4404:4408  0x20 */\n      0x20\n        /* \"Verifier.sol\":4401:4402  0 */\n      0x00\n        /* \"Verifier.sol\":4394:4409  return(0, 0x20) */\n      return\n        /* \"Verifier.sol\":4320:4427  if iszero(success) {... */\n    tag_19:\n      pop\n        /* \"Verifier.sol\":3703:4441  function g1_mulAccC(pR, x, y, s) {... */\n      pop\n      pop\n      pop\n      pop\n      jump\t// out\n        /* \"Verifier.sol\":4455:6652  function checkPairing(pA, pB, pC, pubSignals, pMem) -> isOk {... */\n    tag_13:\n        /* \"Verifier.sol\":4643:4647  IC0x */\n      0x1534ec23c236fce4847d9f0063d2b9559557d82a89b6327b19e3e1b0a67bb9e8\n        /* \"Verifier.sol\":4630:4648  mstore(_pVk, IC0x) */\n      dup6\n      mstore\n        /* \"Verifier.sol\":4687:4691  IC0y */\n      0x1986308a724f6677fca33482e6c300e1760efe222c338a34c30b4cc5a59f0617\n        /* \"Verifier.sol\":4682:4684  32 */\n      0x20\n        /* \"Verifier.sol\":4672:4685  add(_pVk, 32) */\n      dup7\n      add\n        /* \"Verifier.sol\":4665:4692  mstore(add(_pVk, 32), IC0y) */\n      mstore\n        /* \"Verifier.sol\":4510:4514  isOk */\n      0x00\n        /* \"Verifier.sol\":4560:4568  pPairing */\n      0x80\n        /* \"Verifier.sol\":4550:4569  add(pMem, pPairing) */\n      dup7\n      add\n        /* \"Verifier.sol\":4554:4558  pMem */\n      dup7\n        /* \"Verifier.sol\":4782:4844  g1_mulAccC(_pVk, IC1x, IC1y, calldataload(add(pubSignals, 0))) */\n      tag_21\n        /* \"Verifier.sol\":4811:4843  calldataload(add(pubSignals, 0)) */\n      dup8\n      calldataload\n        /* \"Verifier.sol\":4805:4809  IC1y */\n      0x1ba5cc5f8200d20361782d461be1e7befe66c5d4860156e7d007f3a92b21ea3e\n        /* \"Verifier.sol\":4799:4803  IC1x */\n      0x19f0954778cd9ba758404320c489cef6e845294ebac3809e2c9bd017edb5a65b\n        /* \"Verifier.sol\":4554:4558  pMem */\n      dup5\n        /* \"Verifier.sol\":4782:4844  g1_mulAccC(_pVk, IC1x, IC1y, calldataload(add(pubSignals, 0))) */\n      tag_12\n      jump\t// in\n    tag_21:\n      pop\n        /* \"Verifier.sol\":4932:4934  pA */\n      dup3\n        /* \"Verifier.sol\":4919:4935  calldataload(pA) */\n      calldataload\n        /* \"Verifier.sol\":4908:4917  _pPairing */\n      dup2\n        /* \"Verifier.sol\":4901:4936  mstore(_pPairing, calldataload(pA)) */\n      mstore\n        /* \"Verifier.sol\":5019:5020  q */\n      0x30644e72e131a029b85045b68181585d97816a916871ca8d3c208c16d87cfd47\n        /* \"Verifier.sol\":5012:5014  32 */\n      0x20\n        /* \"Verifier.sol\":5008:5010  pA */\n      dup5\n        /* \"Verifier.sol\":5004:5015  add(pA, 32) */\n      add\n        /* \"Verifier.sol\":4991:5016  calldataload(add(pA, 32)) */\n      calldataload\n        /* \"Verifier.sol\":4988:4989  q */\n      0x30644e72e131a029b85045b68181585d97816a916871ca8d3c208c16d87cfd47\n        /* \"Verifier.sol\":4984:5017  sub(q, calldataload(add(pA, 32))) */\n      sub\n        /* \"Verifier.sol\":4980:5021  mod(sub(q, calldataload(add(pA, 32))), q) */\n      mod\n        /* \"Verifier.sol\":4975:4977  32 */\n      0x20\n        /* \"Verifier.sol\":4964:4973  _pPairing */\n      dup3\n        /* \"Verifier.sol\":4960:4978  add(_pPairing, 32) */\n      add\n        /* \"Verifier.sol\":4953:5022  mstore(add(_pPairing, 32), mod(sub(q, calldataload(add(pA, 32))), q)) */\n      mstore\n        /* \"Verifier.sol\":5101:5103  pB */\n      dup4\n        /* \"Verifier.sol\":5088:5104  calldataload(pB) */\n      calldataload\n        /* \"Verifier.sol\":5083:5085  64 */\n      0x40\n        /* \"Verifier.sol\":5072:5081  _pPairing */\n      dup3\n        /* \"Verifier.sol\":5068:5086  add(_pPairing, 64) */\n      add\n        /* \"Verifier.sol\":5061:5105  mstore(add(_pPairing, 64), calldataload(pB)) */\n      mstore\n        /* \"Verifier.sol\":5170:5172  32 */\n      0x20\n        /* \"Verifier.sol\":5166:5168  pB */\n      dup5\n        /* \"Verifier.sol\":5162:5173  add(pB, 32) */\n      add\n        /* \"Verifier.sol\":5149:5174  calldataload(add(pB, 32)) */\n      calldataload\n        /* \"Verifier.sol\":5144:5146  96 */\n      0x60\n        /* \"Verifier.sol\":5133:5142  _pPairing */\n      dup3\n        /* \"Verifier.sol\":5129:5147  add(_pPairing, 96) */\n      add\n        /* \"Verifier.sol\":5122:5175  mstore(add(_pPairing, 96), calldataload(add(pB, 32))) */\n      mstore\n        /* \"Verifier.sol\":5241:5243  64 */\n      0x40\n        /* \"Verifier.sol\":5237:5239  pB */\n      dup5\n        /* \"Verifier.sol\":5233:5244  add(pB, 64) */\n      add\n        /* \"Verifier.sol\":5220:5245  calldataload(add(pB, 64)) */\n      calldataload\n        /* \"Verifier.sol\":5214:5217  128 */\n      0x80\n        /* \"Verifier.sol\":5203:5212  _pPairing */\n      dup3\n        /* \"Verifier.sol\":5199:5218  add(_pPairing, 128) */\n      add\n        /* \"Verifier.sol\":5192:5246  mstore(add(_pPairing, 128), calldataload(add(pB, 64))) */\n      mstore\n        /* \"Verifier.sol\":5312:5314  96 */\n      0x60\n        /* \"Verifier.sol\":5308:5310  pB */\n      dup5\n        /* \"Verifier.sol\":5304:5315  add(pB, 96) */\n      add\n        /* \"Verifier.sol\":5291:5316  calldataload(add(pB, 96)) */\n      calldataload\n        /* \"Verifier.sol\":5285:5288  160 */\n      0xa0\n        /* \"Verifier.sol\":5274:5283  _pPairing */\n      dup3\n        /* \"Verifier.sol\":5270:5289  add(_pPairing, 160) */\n      add\n        /* \"Verifier.sol\":5263:5317  mstore(add(_pPairing, 160), calldataload(add(pB, 96))) */\n      mstore\n        /* \"Verifier.sol\":5389:5395  alphax */\n      0x2c5b5b17d0a0df365b4686b7483592fab65cd01326630b57a476063aee61cb3c\n        /* \"Verifier.sol\":5383:5386  192 */\n      0xc0\n        /* \"Verifier.sol\":5372:5381  _pPairing */\n      dup3\n        /* \"Verifier.sol\":5368:5387  add(_pPairing, 192) */\n      add\n        /* \"Verifier.sol\":5361:5396  mstore(add(_pPairing, 192), alphax) */\n      mstore\n        /* \"Verifier.sol\":5441:5447  alphay */\n      0x1cb9922e1c468b77ba2bf9620ac2418fde47c79622ba05705dce5d48c84403f6\n        /* \"Verifier.sol\":5435:5438  224 */\n      0xe0\n        /* \"Verifier.sol\":5424:5433  _pPairing */\n      dup3\n        /* \"Verifier.sol\":5420:5439  add(_pPairing, 224) */\n      add\n        /* \"Verifier.sol\":5413:5448  mstore(add(_pPairing, 224), alphay) */\n      mstore\n        /* \"Verifier.sol\":5519:5525  betax1 */\n      0x1e3dee7c0bfb4d39b33c606463209cf3d6b3fec327858cd1457e43512c278553\n        /* \"Verifier.sol\":5513:5516  256 */\n      0x0100\n        /* \"Verifier.sol\":5502:5511  _pPairing */\n      dup3\n        /* \"Verifier.sol\":5498:5517  add(_pPairing, 256) */\n      add\n        /* \"Verifier.sol\":5491:5526  mstore(add(_pPairing, 256), betax1) */\n      mstore\n        /* \"Verifier.sol\":5571:5577  betax2 */\n      0x1f1cbdc76ee0c315073f6d925798fa12893cdcae3fe670e9cface481a9117320\n        /* \"Verifier.sol\":5565:5568  288 */\n      0x0120\n        /* \"Verifier.sol\":5554:5563  _pPairing */\n      dup3\n        /* \"Verifier.sol\":5550:5569  add(_pPairing, 288) */\n      add\n        /* \"Verifier.sol\":5543:5578  mstore(add(_pPairing, 288), betax2) */\n      mstore\n        /* \"Verifier.sol\":5623:5629  betay1 */\n      0x0667ec5f2d349cc6b6a5b89b2694e6b2d794f4ea3bd4d09e3c4c8e42acfb18f3\n        /* \"Verifier.sol\":5617:5620  320 */\n      0x0140\n        /* \"Verifier.sol\":5606:5615  _pPairing */\n      dup3\n        /* \"Verifier.sol\":5602:5621  add(_pPairing, 320) */\n      add\n        /* \"Verifier.sol\":5595:5630  mstore(add(_pPairing, 320), betay1) */\n      mstore\n        /* \"Verifier.sol\":5675:5681  betay2 */\n      0x2b7fffe2faecb47f82544234da95e7d880720b812f36042a307332c4262bbfdd\n        /* \"Verifier.sol\":5669:5672  352 */\n      0x0160\n        /* \"Verifier.sol\":5658:5667  _pPairing */\n      dup3\n        /* \"Verifier.sol\":5654:5673  add(_pPairing, 352) */\n      add\n        /* \"Verifier.sol\":5647:5682  mstore(add(_pPairing, 352), betay2) */\n      mstore\n        /* \"Verifier.sol\":5768:5771  pVk */\n      0x00\n        /* \"Verifier.sol\":5762:5766  pMem */\n      dup8\n        /* \"Verifier.sol\":5758:5772  add(pMem, pVk) */\n      add\n        /* \"Verifier.sol\":5752:5773  mload(add(pMem, pVk)) */\n      mload\n        /* \"Verifier.sol\":5746:5749  384 */\n      0x0180\n        /* \"Verifier.sol\":5735:5744  _pPairing */\n      dup3\n        /* \"Verifier.sol\":5731:5750  add(_pPairing, 384) */\n      add\n        /* \"Verifier.sol\":5724:5774  mstore(add(_pPairing, 384), mload(add(pMem, pVk))) */\n      mstore\n        /* \"Verifier.sol\":5844:5846  32 */\n      0x20\n        /* \"Verifier.sol\":5839:5842  pVk */\n      0x00\n        /* \"Verifier.sol\":5835:5847  add(pVk, 32) */\n      add\n        /* \"Verifier.sol\":5829:5833  pMem */\n      dup8\n        /* \"Verifier.sol\":5825:5848  add(pMem, add(pVk, 32)) */\n      add\n        /* \"Verifier.sol\":5819:5849  mload(add(pMem, add(pVk, 32))) */\n      mload\n        /* \"Verifier.sol\":5813:5816  416 */\n      0x01a0\n        /* \"Verifier.sol\":5802:5811  _pPairing */\n      dup3\n        /* \"Verifier.sol\":5798:5817  add(_pPairing, 416) */\n      add\n        /* \"Verifier.sol\":5791:5850  mstore(add(_pPairing, 416), mload(add(pMem, add(pVk, 32)))) */\n      mstore\n        /* \"Verifier.sol\":5923:5930  gammax1 */\n      0x198e9393920d483a7260bfb731fb5d25f1aa493335a9e71297e485b7aef312c2\n        /* \"Verifier.sol\":5917:5920  448 */\n      0x01c0\n        /* \"Verifier.sol\":5906:5915  _pPairing */\n      dup3\n        /* \"Verifier.sol\":5902:5921  add(_pPairing, 448) */\n      add\n        /* \"Verifier.sol\":5895:5931  mstore(add(_pPairing, 448), gammax1) */\n      mstore\n        /* \"Verifier.sol\":5976:5983  gammax2 */\n      0x1800deef121f1e76426a00665e5c4479674322d4f75edadd46debd5cd992f6ed\n        /* \"Verifier.sol\":5970:5973  480 */\n      0x01e0\n        /* \"Verifier.sol\":5959:5968  _pPairing */\n      dup3\n        /* \"Verifier.sol\":5955:5974  add(_pPairing, 480) */\n      add\n        /* \"Verifier.sol\":5948:5984  mstore(add(_pPairing, 480), gammax2) */\n      mstore\n        /* \"Verifier.sol\":6029:6036  gammay1 */\n      0x090689d0585ff075ec9e99ad690c3395bc4b313370b38ef355acdadcd122975b\n        /* \"Verifier.sol\":6023:6026  512 */\n      0x0200\n        /* \"Verifier.sol\":6012:6021  _pPairing */\n      dup3\n        /* \"Verifier.sol\":6008:6027  add(_pPairing, 512) */\n      add\n        /* \"Verifier.sol\":6001:6037  mstore(add(_pPairing, 512), gammay1) */\n      mstore\n        /* \"Verifier.sol\":6082:6089  gammay2 */\n      0x12c85ea5db8c6deb4aab71808dcb408fe3d1e7690c43d37b4ce6cc0166fa7daa\n        /* \"Verifier.sol\":6076:6079  544 */\n      0x0220\n        /* \"Verifier.sol\":6065:6074  _pPairing */\n      dup3\n        /* \"Verifier.sol\":6061:6080  add(_pPairing, 544) */\n      add\n        /* \"Verifier.sol\":6054:6090  mstore(add(_pPairing, 544), gammay2) */\n      mstore\n        /* \"Verifier.sol\":6170:6172  pC */\n      dup5\n        /* \"Verifier.sol\":6157:6173  calldataload(pC) */\n      calldataload\n        /* \"Verifier.sol\":6151:6154  576 */\n      0x0240\n        /* \"Verifier.sol\":6140:6149  _pPairing */\n      dup3\n        /* \"Verifier.sol\":6136:6155  add(_pPairing, 576) */\n      add\n        /* \"Verifier.sol\":6129:6174  mstore(add(_pPairing, 576), calldataload(pC)) */\n      mstore\n        /* \"Verifier.sol\":6240:6242  32 */\n      0x20\n        /* \"Verifier.sol\":6236:6238  pC */\n      dup6\n        /* \"Verifier.sol\":6232:6243  add(pC, 32) */\n      add\n        /* \"Verifier.sol\":6219:6244  calldataload(add(pC, 32)) */\n      calldataload\n        /* \"Verifier.sol\":6213:6216  608 */\n      0x0260\n        /* \"Verifier.sol\":6202:6211  _pPairing */\n      dup3\n        /* \"Verifier.sol\":6198:6217  add(_pPairing, 608) */\n      add\n        /* \"Verifier.sol\":6191:6245  mstore(add(_pPairing, 608), calldataload(add(pC, 32))) */\n      mstore\n        /* \"Verifier.sol\":6317:6324  deltax1 */\n      0x2a29ec31084376a3e3a744f4f7f8441685b0a1c00b7d060d90d3637050a1c253\n        /* \"Verifier.sol\":6311:6314  640 */\n      0x0280\n        /* \"Verifier.sol\":6300:6309  _pPairing */\n      dup3\n        /* \"Verifier.sol\":6296:6315  add(_pPairing, 640) */\n      add\n        /* \"Verifier.sol\":6289:6325  mstore(add(_pPairing, 640), deltax1) */\n      mstore\n        /* \"Verifier.sol\":6370:6377  deltax2 */\n      0x15a8f0dfd8e7b443c515c1847ee6622e49453b8b9f6862af89e4a27a398c56b9\n        /* \"Verifier.sol\":6364:6367  672 */\n      0x02a0\n        /* \"Verifier.sol\":6353:6362  _pPairing */\n      dup3\n        /* \"Verifier.sol\":6349:6368  add(_pPairing, 672) */\n      add\n        /* \"Verifier.sol\":6342:6378  mstore(add(_pPairing, 672), deltax2) */\n      mstore\n        /* \"Verifier.sol\":6423:6430  deltay1 */\n      0x1b5640f0cc59eec4c22ecafca768de11ce66364b939ff9ed807ccfa67707af98\n        /* \"Verifier.sol\":6417:6420  704 */\n      0x02c0\n        /* \"Verifier.sol\":6406:6415  _pPairing */\n      dup3\n        /* \"Verifier.sol\":6402:6421  add(_pPairing, 704) */\n      add\n        /* \"Verifier.sol\":6395:6431  mstore(add(_pPairing, 704), deltay1) */\n      mstore\n        /* \"Verifier.sol\":6476:6483  deltay2 */\n      0x2fc7fa12a7186bc29f76eced67fdbcb5e9aeffc46dc802dc9b74b020ef30a63b\n        /* \"Verifier.sol\":6470:6473  736 */\n      0x02e0\n        /* \"Verifier.sol\":6459:6468  _pPairing */\n      dup3\n        /* \"Verifier.sol\":6455:6474  add(_pPairing, 736) */\n      add\n        /* \"Verifier.sol\":6448:6484  mstore(add(_pPairing, 736), deltay2) */\n      mstore\n        /* \"Verifier.sol\":6577:6581  0x20 */\n      0x20\n        /* \"Verifier.sol\":6566:6575  _pPairing */\n      dup2\n        /* \"Verifier.sol\":6561:6564  768 */\n      0x0300\n        /* \"Verifier.sol\":6550:6559  _pPairing */\n      dup4\n        /* \"Verifier.sol\":6547:6548  8 */\n      0x08\n        /* \"Verifier.sol\":6540:6544  2000 */\n      0x07d0\n        /* \"Verifier.sol\":6533:6538  gas() */\n      gas\n        /* \"Verifier.sol\":6529:6545  sub(gas(), 2000) */\n      sub\n        /* \"Verifier.sol\":6518:6582  staticcall(sub(gas(), 2000), 8, _pPairing, 768, _pPairing, 0x20) */\n      staticcall\n        /* \"Verifier.sol\":6621:6637  mload(_pPairing) */\n      swap1\n      mload\n        /* \"Verifier.sol\":6608:6638  and(success, mload(_pPairing)) */\n      and\n      swap7\n        /* \"Verifier.sol\":4455:6652  function checkPairing(pA, pB, pC, pubSignals, pMem) -> isOk {... */\n      swap6\n      pop\n      pop\n      pop\n      pop\n      pop\n      pop\n      jump\t// out\n    tag_14:\n        /* \"Verifier.sol\":6684:6688  0x40 */\n      0x40\n        /* \"Verifier.sol\":6678:6689  mload(0x40) */\n      mload\n        /* \"Verifier.sol\":6725:6733  pLastMem */\n      0x0380\n        /* \"Verifier.sol\":6719:6723  pMem */\n      dup2\n        /* \"Verifier.sol\":6715:6734  add(pMem, pLastMem) */\n      add\n        /* \"Verifier.sol\":6709:6713  0x40 */\n      0x40\n        /* \"Verifier.sol\":6702:6735  mstore(0x40, add(pMem, pLastMem)) */\n      mstore\n        /* \"Verifier.sol\":6813:6858  checkField(calldataload(add(_pubSignals, 0))) */\n      tag_22\n        /* \"Verifier.sol\":6854:6855  0 */\n      0x00\n        /* \"Verifier.sol\":6841:6852  _pubSignals */\n      dup5\n        /* \"Verifier.sol\":6837:6856  add(_pubSignals, 0) */\n      add\n        /* \"Verifier.sol\":6824:6857  calldataload(add(_pubSignals, 0)) */\n      calldataload\n        /* \"Verifier.sol\":6813:6858  checkField(calldataload(add(_pubSignals, 0))) */\n      tag_11\n      jump\t// in\n    tag_22:\n        /* \"Verifier.sol\":6940:6986  checkPairing(_pA, _pB, _pC, _pubSignals, pMem) */\n      tag_23\n        /* \"Verifier.sol\":6981:6985  pMem */\n      dup2\n        /* \"Verifier.sol\":6968:6979  _pubSignals */\n      dup5\n        /* \"Verifier.sol\":6963:6966  _pC */\n      dup7\n        /* \"Verifier.sol\":6958:6961  _pB */\n      dup9\n        /* \"Verifier.sol\":6953:6956  _pA */\n      dup11\n        /* \"Verifier.sol\":6940:6986  checkPairing(_pA, _pB, _pC, _pubSignals, pMem) */\n      tag_13\n      jump\t// in\n    tag_23:\n        /* \"Verifier.sol\":6925:6986  let isValid := checkPairing(_pA, _pB, _pC, _pubSignals, pMem) */\n      swap1\n      pop\n        /* \"Verifier.sol\":7010:7017  isValid */\n      dup1\n        /* \"Verifier.sol\":7007:7008  0 */\n      0x00\n        /* \"Verifier.sol\":7000:7018  mstore(0, isValid) */\n      mstore\n        /* \"Verifier.sol\":7042:7046  0x20 */\n      0x20\n        /* \"Verifier.sol\":7039:7040  0 */\n      0x00\n        /* \"Verifier.sol\":7032:7047  return(0, 0x20) */\n      return\n        /* \"#utility.yul\":14:173   */\n    tag_24:\n        /* \"#utility.yul\":108:114   */\n      dup1\n        /* \"#utility.yul\":141:143   */\n      0x40\n        /* \"#utility.yul\":129:144   */\n      dup2\n      add\n        /* \"#utility.yul\":126:150   */\n      dup4\n      lt\n        /* \"#utility.yul\":123:167   */\n      iszero\n      tag_27\n      jumpi\n        /* \"#utility.yul\":163:164   */\n      0x00\n        /* \"#utility.yul\":160:161   */\n      dup1\n        /* \"#utility.yul\":153:165   */\n      revert\n        /* \"#utility.yul\":123:167   */\n    tag_27:\n        /* \"#utility.yul\":14:173   */\n      swap3\n      swap2\n      pop\n      pop\n      jump\t// out\n        /* \"#utility.yul\":178:868   */\n    tag_6:\n        /* \"#utility.yul\":389:395   */\n      0x00\n        /* \"#utility.yul\":397:403   */\n      dup1\n        /* \"#utility.yul\":405:411   */\n      0x00\n        /* \"#utility.yul\":413:419   */\n      dup1\n        /* \"#utility.yul\":444:447   */\n      0x0120\n        /* \"#utility.yul\":488:490   */\n      dup1\n        /* \"#utility.yul\":476:485   */\n      dup7\n        /* \"#utility.yul\":467:474   */\n      dup9\n        /* \"#utility.yul\":463:486   */\n      sub\n        /* \"#utility.yul\":459:491   */\n      slt\n        /* \"#utility.yul\":456:508   */\n      iszero\n      tag_29\n      jumpi\n        /* \"#utility.yul\":504:505   */\n      0x00\n        /* \"#utility.yul\":501:502   */\n      dup1\n        /* \"#utility.yul\":494:506   */\n      revert\n        /* \"#utility.yul\":456:508   */\n    tag_29:\n        /* \"#utility.yul\":527:580   */\n      tag_30\n        /* \"#utility.yul\":572:579   */\n      dup8\n        /* \"#utility.yul\":561:570   */\n      dup8\n        /* \"#utility.yul\":527:580   */\n      tag_24\n      jump\t// in\n    tag_30:\n        /* \"#utility.yul\":517:580   */\n      swap5\n      pop\n        /* \"#utility.yul\":614:617   */\n      0xc0\n        /* \"#utility.yul\":603:612   */\n      dup7\n        /* \"#utility.yul\":599:618   */\n      add\n        /* \"#utility.yul\":637:644   */\n      dup8\n        /* \"#utility.yul\":633:635   */\n      dup2\n        /* \"#utility.yul\":630:645   */\n      gt\n        /* \"#utility.yul\":627:662   */\n      iszero\n      tag_31\n      jumpi\n        /* \"#utility.yul\":658:659   */\n      0x00\n        /* \"#utility.yul\":655:656   */\n      dup1\n        /* \"#utility.yul\":648:660   */\n      revert\n        /* \"#utility.yul\":627:662   */\n    tag_31:\n        /* \"#utility.yul\":696:698   */\n      0x40\n        /* \"#utility.yul\":685:694   */\n      dup8\n        /* \"#utility.yul\":681:699   */\n      add\n        /* \"#utility.yul\":671:699   */\n      swap5\n      pop\n        /* \"#utility.yul\":718:764   */\n      tag_32\n        /* \"#utility.yul\":756:763   */\n      dup9\n        /* \"#utility.yul\":752:754   */\n      dup3\n        /* \"#utility.yul\":718:764   */\n      tag_24\n      jump\t// in\n    tag_32:\n        /* \"#utility.yul\":708:764   */\n      swap4\n      pop\n      pop\n        /* \"#utility.yul\":799:806   */\n      dup7\n        /* \"#utility.yul\":794:796   */\n      dup2\n        /* \"#utility.yul\":783:792   */\n      dup8\n        /* \"#utility.yul\":779:797   */\n      add\n        /* \"#utility.yul\":776:807   */\n      gt\n        /* \"#utility.yul\":773:824   */\n      iszero\n      tag_33\n      jumpi\n        /* \"#utility.yul\":820:821   */\n      0x00\n        /* \"#utility.yul\":817:818   */\n      dup1\n        /* \"#utility.yul\":810:822   */\n      revert\n        /* \"#utility.yul\":773:824   */\n    tag_33:\n      pop\n        /* \"#utility.yul\":178:868   */\n      swap3\n      swap6\n      swap2\n      swap5\n      pop\n      swap3\n        /* \"#utility.yul\":858:861   */\n      0x0100\n        /* \"#utility.yul\":843:862   */\n      add\n      swap2\n      pop\n        /* \"#utility.yul\":178:868   */\n      jump\t// out\n\n    auxdata: 0xa2646970667358221220a9e49df912d495cc0d99f4d6fe6cc05aa9ba0ef4e28fee6ab4b89e09fb89865164736f6c63430008190033\n}\n",
    "bytecode": {
      "linkReferences": {},
      "object": "6080604052348015600e575f80fd5b506105478061001c5f395ff3fe608060405234801561000f575f80fd5b5060043610610029575f3560e01c806343753b4d1461002d575b5f80fd5b61004061003b3660046104b0565b610054565b604051901515815260200160405180910390f35b5f61046c565b7f30644e72e131a029b85045b68181585d2833e84879b9709143e1f593f00000018110610089575f805260205ff35b50565b5f60405183815284602082015285604082015260408160608360076107d05a03fa9150816100bc575f805260205ff35b825160408201526020830151606082015260408360808360066107d05a03fa915050806100eb575f805260205ff35b5050505050565b7f1534ec23c236fce4847d9f0063d2b9559557d82a89b6327b19e3e1b0a67bb9e885527f1986308a724f6677fca33482e6c300e1760efe222c338a34c30b4cc5a59f061760208601525f608086018661018e87357f1ba5cc5f8200d20361782d461be1e7befe66c5d4860156e7d007f3a92b21ea3e7f19f0954778cd9ba758404320c489cef6e845294ebac3809e2c9bd017edb5a65b8461008c565b50823581527f30644e72e131a029b85045b68181585d97816a916871ca8d3c208c16d87cfd4760208401357f30644e72e131a029b85045b68181585d97816a916871ca8d3c208c16d87cfd4703066020820152833560408201526020840135606082015260408401356080820152606084013560a08201527f2c5b5b17d0a0df365b4686b7483592fab65cd01326630b57a476063aee61cb3c60c08201527f1cb9922e1c468b77ba2bf9620ac2418fde47c79622ba05705dce5d48c84403f660e08201527f1e3dee7c0bfb4d39b33c606463209cf3d6b3fec327858cd1457e43512c2785536101008201527f1f1cbdc76ee0c315073f6d925798fa12893cdcae3fe670e9cface481a91173206101208201527f0667ec5f2d349cc6b6a5b89b2694e6b2d794f4ea3bd4d09e3c4c8e42acfb18f36101408201527f2b7fffe2faecb47f82544234da95e7d880720b812f36042a307332c4262bbfdd6101608201525f87015161018082015260205f018701516101a08201527f198e9393920d483a7260bfb731fb5d25f1aa493335a9e71297e485b7aef312c26101c08201527f1800deef121f1e76426a00665e5c4479674322d4f75edadd46debd5cd992f6ed6101e08201527f090689d0585ff075ec9e99ad690c3395bc4b313370b38ef355acdadcd122975b6102008201527f12c85ea5db8c6deb4aab71808dcb408fe3d1e7690c43d37b4ce6cc0166fa7daa610220820152843561024082015260208501356102608201527f2a29ec31084376a3e3a744f4f7f8441685b0a1c00b7d060d90d3637050a1c2536102808201527f15a8f0dfd8e7b443c515c1847ee6622e49453b8b9f6862af89e4a27a398c56b96102a08201527f1b5640f0cc59eec4c22ecafca768de11ce66364b939ff9ed807ccfa67707af986102c08201527f2fc7fa12a7186bc29f76eced67fdbcb5e9aeffc46dc802dc9b74b020ef30a63b6102e08201526020816103008360086107d05a03fa9051169695505050505050565b60405161038081016040526104835f84013561005a565b610490818486888a6100f2565b9050805f5260205ff35b80604081018310156104aa575f80fd5b92915050565b5f805f806101208086880312156104c5575f80fd5b6104cf878761049a565b945060c08601878111156104e1575f80fd5b6040870194506104f1888261049a565b935050868187011115610502575f80fd5b5092959194509261010001915056fea2646970667358221220a9e49df912d495cc0d99f4d6fe6cc05aa9ba0ef4e28fee6ab4b89e09fb89865164736f6c63430008190033",
      "opcodes": "PUSH1 0x80 PUSH1 0x40 MSTORE CALLVALUE DUP1 ISZERO PUSH1 0xE JUMPI PUSH0 DUP1 REVERT JUMPDEST POP PUSH2 0x547 DUP1 PUSH2 0x1C PUSH0 CODECOPY PUSH0 RETURN INVALID PUSH1 0x80 PUSH1 0x40 MSTORE CALLVALUE DUP1 ISZERO PUSH2 0xF JUMPI PUSH0 DUP1 REVERT JUMPDEST POP PUSH1 0x4 CALLDATASIZE LT PUSH2 0x29 JUMPI PUSH0 CALLDATALOAD PUSH1 0xE0 SHR DUP1 PUSH4 0x43753B4D EQ PUSH2 0x2D JUMPI JUMPDEST PUSH0 DUP1 REVERT JUMPDEST PUSH2 0x40 PUSH2 0x3B CALLDATASIZE PUSH1 0x4 PUSH2 0x4B0 JUMP JUMPDEST PUSH2 0x54 JUMP JUMPDEST PUSH1 0x40 MLOAD SWAP1 ISZERO ISZERO DUP2 MSTORE PUSH1 0x20 ADD PUSH1 0x40 MLOAD DUP1 SWAP2 SUB SWAP1 RETURN JUMPDEST PUSH0 PUSH2 0x46C JUMP JUMPDEST PUSH32 0x30644E72E131A029B85045B68181585D2833E84879B9709143E1F593F0000001 DUP2 LT PUSH2 0x89 JUMPI PUSH0 DUP1 MSTORE PUSH1 0x20 PUSH0 RETURN JUMPDEST POP JUMP JUMPDEST PUSH0 PUSH1 0x40 MLOAD DUP4 DUP2 MSTORE DUP5 PUSH1 0x20 DUP3 ADD MSTORE DUP6 PUSH1 0x40 DUP3 ADD MSTORE PUSH1 0x40 DUP2 PUSH1 0x60 DUP4 PUSH1 0x7 PUSH2 0x7D0 GAS SUB STATICCALL SWAP2 POP DUP2 PUSH2 0xBC JUMPI PUSH0 DUP1 MSTORE PUSH1 0x20 PUSH0 RETURN JUMPDEST DUP3 MLOAD PUSH1 0x40 DUP3 ADD MSTORE PUSH1 0x20 DUP4 ADD MLOAD PUSH1 0x60 DUP3 ADD MSTORE PUSH1 0x40 DUP4 PUSH1 0x80 DUP4 PUSH1 0x6 PUSH2 0x7D0 GAS SUB STATICCALL SWAP2 POP POP DUP1 PUSH2 0xEB JUMPI PUSH0 DUP1 MSTORE PUSH1 0x20 PUSH0 RETURN JUMPDEST POP POP POP POP POP JUMP JUMPDEST PUSH32 0x1534EC23C236FCE4847D9F0063D2B9559557D82A89B6327B19E3E1B0A67BB9E8 DUP6 MSTORE PUSH32 0x1986308A724F6677FCA33482E6C300E1760EFE222C338A34C30B4CC5A59F0617 PUSH1 0x20 DUP7 ADD MSTORE PUSH0 PUSH1 0x80 DUP7 ADD DUP7 PUSH2 0x18E DUP8 CALLDATALOAD PUSH32 0x1BA5CC5F8200D20361782D461BE1E7BEFE66C5D4860156E7D007F3A92B21EA3E PUSH32 0x19F0954778CD9BA758404320C489CEF6E845294EBAC3809E2C9BD017EDB5A65B DUP5 PUSH2 0x8C JUMP JUMPDEST POP DUP3 CALLDATALOAD DUP2 MSTORE PUSH32 0x30644E72E131A029B85045B68181585D97816A916871CA8D3C208C16D87CFD47 PUSH1 0x20 DUP5 ADD CALLDATALOAD PUSH32 0x30644E72E131A029B85045B68181585D97816A916871CA8D3C208C16D87CFD47 SUB MOD PUSH1 0x20 DUP3 ADD MSTORE DUP4 CALLDATALOAD PUSH1 0x40 DUP3 ADD MSTORE PUSH1 0x20 DUP5 ADD CALLDATALOAD PUSH1 0x60 DUP3 ADD MSTORE PUSH1 0x40 DUP5 ADD CALLDATALOAD PUSH1 0x80 DUP3 ADD MSTORE PUSH1 0x60 DUP5 ADD CALLDATALOAD PUSH1 0xA0 DUP3 ADD MSTORE PUSH32 0x2C5B5B17D0A0DF365B4686B7483592FAB65CD01326630B57A476063AEE61CB3C PUSH1 0xC0 DUP3 ADD MSTORE PUSH32 0x1CB9922E1C468B77BA2BF9620AC2418FDE47C79622BA05705DCE5D48C84403F6 PUSH1 0xE0 DUP3 ADD MSTORE PUSH32 0x1E3DEE7C0BFB4D39B33C606463209CF3D6B3FEC327858CD1457E43512C278553 PUSH2 0x100 DUP3 ADD MSTORE PUSH32 0x1F1CBDC76EE0C315073F6D925798FA12893CDCAE3FE670E9CFACE481A9117320 PUSH2 0x120 DUP3 ADD MSTORE PUSH32 0x667EC5F2D349CC6B6A5B89B2694E6B2D794F4EA3BD4D09E3C4C8E42ACFB18F3 PUSH2 0x140 DUP3 ADD MSTORE PUSH32 0x2B7FFFE2FAECB47F82544234DA95E7D880720B812F36042A307332C4262BBFDD PUSH2 0x160 DUP3 ADD MSTORE PUSH0 DUP8 ADD MLOAD PUSH2 0x180 DUP3 ADD MSTORE PUSH1 0x20 PUSH0 ADD DUP8 ADD MLOAD PUSH2 0x1A0 DUP3 ADD MSTORE PUSH32 0x198E9393920D483A7260BFB731FB5D25F1AA493335A9E71297E485B7AEF312C2 PUSH2 0x1C0 DUP3 ADD MSTORE PUSH32 0x1800DEEF121F1E76426A00665E5C4479674322D4F75EDADD46DEBD5CD992F6ED PUSH2 0x1E0 DUP3 ADD MSTORE PUSH32 0x90689D0585FF075EC9E99AD690C3395BC4B313370B38EF355ACDADCD122975B PUSH2 0x200 DUP3 ADD MSTORE PUSH32 0x12C85EA5DB8C6DEB4AAB71808DCB408FE3D1E7690C43D37B4CE6CC0166FA7DAA PUSH2 0x220 DUP3 ADD MSTORE DUP5 CALLDATALOAD PUSH2 0x240 DUP3 ADD MSTORE PUSH1 0x20 DUP6 ADD CALLDATALOAD PUSH2 0x260 DUP3 ADD MSTORE PUSH32 0x2A29EC31084376A3E3A744F4F7F8441685B0A1C00B7D060D90D3637050A1C253 PUSH2 0x280 DUP3 ADD MSTORE PUSH32 0x15A8F0DFD8E7B443C515C1847EE6622E49453B8B9F6862AF89E4A27A398C56B9 PUSH2 0x2A0 DUP3 ADD MSTORE PUSH32 0x1B5640F0CC59EEC4C22ECAFCA768DE11CE66364B939FF9ED807CCFA67707AF98 PUSH2 0x2C0 DUP3 ADD MSTORE PUSH32 0x2FC7FA12A7186BC29F76ECED67FDBCB5E9AEFFC46DC802DC9B74B020EF30A63B PUSH2 0x2E0 DUP3 ADD MSTORE PUSH1 0x20 DUP2 PUSH2 0x300 DUP4 PUSH1 0x8 PUSH2 0x7D0 GAS SUB STATICCALL SWAP1 MLOAD AND SWAP7 SWAP6 POP POP POP POP POP POP JUMP JUMPDEST PUSH1 0x40 MLOAD PUSH2 0x380 DUP2 ADD PUSH1 0x40 MSTORE PUSH2 0x483 PUSH0 DUP5 ADD CALLDATALOAD PUSH2 0x5A JUMP JUMPDEST PUSH2 0x490 DUP2 DUP5 DUP7 DUP9 DUP11 PUSH2 0xF2 JUMP JUMPDEST SWAP1 POP DUP1 PUSH0 MSTORE PUSH1 0x20 PUSH0 RETURN JUMPDEST DUP1 PUSH1 0x40 DUP2 ADD DUP4 LT ISZERO PUSH2 0x4AA JUMPI PUSH0 DUP1 REVERT JUMPDEST SWAP3 SWAP2 POP POP JUMP JUMPDEST PUSH0 DUP1 PUSH0 DUP1 PUSH2 0x120 DUP1 DUP7 DUP9 SUB SLT ISZERO PUSH2 0x4C5 JUMPI PUSH0 DUP1 REVERT JUMPDEST PUSH2 0x4CF DUP8 DUP8 PUSH2 0x49A JUMP JUMPDEST SWAP5 POP PUSH1 0xC0 DUP7 ADD DUP8 DUP2 GT ISZERO PUSH2 0x4E1 JUMPI PUSH0 DUP1 REVERT JUMPDEST PUSH1 0x40 DUP8 ADD SWAP5 POP PUSH2 0x4F1 DUP9 DUP3 PUSH2 0x49A JUMP JUMPDEST SWAP4 POP POP DUP7 DUP2 DUP8 ADD GT ISZERO PUSH2 0x502 JUMPI PUSH0 DUP1 REVERT JUMPDEST POP SWAP3 SWAP6 SWAP2 SWAP5 POP SWAP3 PUSH2 0x100 ADD SWAP2 POP JUMP INVALID LOG2 PUSH5 0x6970667358 0x22 SLT KECCAK256 0xA9 0xE4 SWAP14 0xF9 SLT 0xD4 SWAP6 0xCC 0xD SWAP10 DELEGATECALL 0xD6 INVALID PUSH13 0xC05AA9BA0EF4E28FEE6AB4B89E MULMOD 0xFB DUP10 DUP7 MLOAD PUSH5 0x736F6C6343 STOP ADDMOD NOT STOP CALLER "
    },
    "gasEstimates": {
      "creation": {
        "codeDepositCost": "270200",
        "executionCost": "310",
        "totalCost": "270510"
      },
      "external": {
        "verifyProof(uint256[2],uint256[2][2],uint256[2],uint256[1])": "infinite"
      }
    },
    "methodIdentifiers": {
      "verifyProof(uint256[2],uint256[2][2],uint256[2],uint256[1])": "43753b4d"
    }
  },
  "storageLayout": {
    "storage": [],
    "types": null
  },
  "userdoc": {
    "kind": "user",
    "methods": {},
    "version": 1
  }
}